:0400000007EF00F016
:0A00080074822DED0AF0DBEF15F015
:101000000054656D7020312076616C7565203A0062
:1010100054656D7020322076616C7565203A005001
:0F102000726F6A656374206F6E6500256900004A
:101030001C50800B256E1C501C242B6E1BAE23EF06
:1010400008F025EF08F026EF08F02B802B50D8B4DD
:101050002CEF08F02EEF08F041EF08F02B28D8A471
:1010600034EF08F036EF08F03EEF08F0000E196E8E
:10107000000E1A6E000E1B6E000E1C6E1B8E49EFCA
:1010800008F0000E196E000E1A6E000E1B6E000E98
:101090001C6E2050800B251A205020242A6E1FAE73
:1010A00054EF08F056EF08F057EF08F02A802A5066
:1010B000D8B45DEF08F05FEF08F072EF08F02A286F
:1010C000D8A465EF08F067EF08F06FEF08F0000EA6
:1010D0001D6E000E1E6E000E1F6E000E206E1F8E07
:1010E0007AEF08F0000E1D6E000E1E6E000E1F6ED1
:1010F000000E206E2A50D8B480EF08F082EF08F07E
:101100008AEF08F02B50D8A488EF08F08AEF08F097
:1011100094EF08F0000E196E000E1A6E000E1B6E92
:10112000000E1C6E2CEF0AF01F501902F3CF30F0A6
:10113000F4CF31F03050266E276A286A296A315080
:101140002C6E2D6A2E6A2F6A1E501A02F3CF30F0D1
:10115000F4CF31F030502626000E272228222922F3
:1011600031502C26000E2D222E222F221D501B0224
:10117000F3CF30F0F4CF31F030502626000E272286
:101180002822292231502C26000E2D222E222F22F9
:1011900028C029F027C028F026C027F0266A1D5055
:1011A0001A02F3CF30F0F4CF31F030502626315010
:1011B0002722000E2822000E29221E501902F3CFEA
:1011C00030F0F4CF31F03050262631502722000E77
:1011D0002822000E292228C029F027C028F026C086
:1011E00027F0266A1D501902F3CF30F0F4CF31F00A
:1011F0003050262631502722000E2822000E2922A8
:101200001F501A02F3CF30F0F4CF31F030502C26BB
:1012100031502D22000E2E22000E2F221E501B02B6
:10122000F3CF30F0F4CF31F030502C2631502D2256
:10123000000E2E22000E2F221F501B02F3CF30F083
:10124000F4CF31F03050216E3150226E236A246A7F
:1012500023C024F022C023F021C022F0216A2150B3
:101260002C2622502D2223502E2224502F2226C0FD
:1012700021F027C022F028C023F029C024F0190E45
:1012800047EF09F0D8902432233222322132E82E5F
:1012900042EF09F021502C2622502D2223502E22DD
:1012A00024502F2228C029F027C028F026C027F07C
:1012B000266A2A502BC021F0226A2126000E222203
:1012C000820E2124306EFF0E2220316E7DEF09F058
:1012D000D8902C362D362E362F3629AE72EF09F0E7
:1012E00074EF09F075EF09F02C80D8902636273678
:1012F000283629363006D8A031062EAE82EF09F006
:1013000084EF09F068EF09F0000E2A6E29AE8BEF2A
:1013100009F08DEF09F0B1EF09F0FF0E2614216EF0
:10132000FF0E2714226EFF0E2814236E7F0E291441
:10133000246E2150221023102410D8B4A2EF09F0FB
:10134000A4EF09F0A8EF09F0010E2A6EB1EF09F041
:101350002CA0ADEF09F0AFEF09F0B1EF09F0A4EF69
:1013600009F02A50D8B4B7EF09F0B9EF09F0DDEF72
:1013700009F0010E2C26000E2D222E222F222FA046
:10138000C4EF09F0C6EF09F0DDEF09F02CC021F041
:101390002DC022F02EC023F02FC024F0243424329C
:1013A00023322232213221C02CF022C02DF023C062
:1013B0002EF024C02FF0304A312A31BEE8EF09F078
:1013C000315008E13028D8A0E8EF09F0EAEF09F041
:1013D000F4EF09F0000E2C6E000E2D6E800E2E6EB6
:1013E0007F0E2F6E22EF0AF031BE01EF0AF031506E
:1013F00006E13004D8B0FFEF09F001EF0AF00DEF7D
:101400000AF0000E2C6E000E2D6E000E2E6E000ED9
:101410002F6E000E256E22EF0AF030C02BF0FF0E6B
:101420002C16FF0E2D167F0E2E16000E2F162BA03B
:101430001CEF0AF01EEF0AF01FEF0AF02E8ED89074
:101440002B302F6E25502F122CC019F02DC01AF002
:101450002EC01BF02FC01CF012000600FACF07F0C0
:10146000FBCF08F0D9CF09F0DACF0AF0F2A83BEFB2
:101470000AF03DEF0AF046EF0AF0F2A242EF0AF05E
:1014800044EF0AF046EF0AF0B1EC19F0F0A64BEF8A
:101490000AF04DEF0AF056EF0AF0F0A052EF0AF012
:1014A00054EF0AF056EF0AF0AFEC19F0F0A85BEF3A
:1014B0000AF05DEF0AF066EF0AF0F0A262EF0AF0C0
:1014C00064EF0AF066EF0AF0ADEC19F0F2A66BEFEC
:1014D0000AF06DEF0AF087EF0AF0F2A072EF0AF05F
:1014E00074EF0AF087EF0AF081B879EF0AF07BEF2A
:1014F0000AF087EF0AF06F50D8A481EF0AF083EF6B
:101500000AF087EF0AF0010E6F6E84EC19F0F2A674
:101510008CEF0AF08EEF0AF0A8EF0AF0F2A093EF3A
:101520000AF095EF0AF0A8EF0AF081A89AEF0AF006
:101530009CEF0AF0A8EF0AF06F04D8A4A2EF0AF01B
:10154000A4EF0AF0A8EF0AF0000E6F6E84EC19F019
:10155000F2A6ADEF0AF0AFEF0AF0C9EF0AF0F2A081
:10156000B4EF0AF0B6EF0AF0C9EF0AF081AABBEFB8
:101570000AF0BDEF0AF0C9EF0AF06E04D8A4C3EF79
:101580000AF0C5EF0AF0C9EF0AF0000E6E6E78ECB3
:1015900019F0F2A6CEEF0AF0D0EF0AF0EAEF0AF067
:1015A000F2A0D5EF0AF0D7EF0AF0EAEF0AF081BA1D
:1015B000DCEF0AF0DEEF0AF0EAEF0AF06E50D8A492
:1015C000E4EF0AF0E6EF0AF0EAEF0AF0010E6E6EC1
:1015D00078EC19F0F2A6EFEF0AF0F1EF0AF00BEF5A
:1015E0000BF0F2A0F6EF0AF0F8EF0AF00BEF0BF0B9
:1015F00081ACFDEF0AF0FFEF0AF00BEF0BF06D048A
:10160000D8A405EF0BF007EF0BF00BEF0BF0000E7B
:101610006D6E6CEC19F0F2A610EF0BF012EF0BF000
:101620002CEF0BF0F2A017EF0BF019EF0BF02CEFF3
:101630000BF081BC1EEF0BF020EF0BF02CEF0BF04A
:101640006D50D8A426EF0BF028EF0BF02CEF0BF029
:10165000010E6D6E6CEC19F0F2A631EF0BF033EF6A
:101660000BF04DEF0BF0F2A038EF0BF03AEF0BF070
:101670004DEF0BF081AE3FEF0BF041EF0BF04DEF74
:101680000BF06C04D8A447EF0BF049EF0BF04DEFD3
:101690000BF0000E6C6E60EC19F0F2A652EF0BF03E
:1016A00054EF0BF06EEF0BF0F2A059EF0BF05BEF85
:1016B0000BF06EEF0BF081BE60EF0BF062EF0BF002
:1016C0006EEF0BF06C50D8A468EF0BF06AEF0BF0E4
:1016D0006EEF0BF0010E6C6E60EC19F09DAC73EFC9
:1016E0000BF075EF0BF07EEF0BF09EAC7AEF0BF08A
:1016F0007CEF0BF07EEF0BF045EC19F0F2AA83EFD4
:101700000BF085EF0BF08EEF0BF0F2A48AEF0BF0ED
:101710008CEF0BF08EEF0BF0A2EC19F09DA093EF85
:101720000BF095EF0BF09EEF0BF09EA09AEF0BF0F5
:101730009CEF0BF09EEF0BF09CEC19F09DA2A3EF39
:101740000BF0A5EF0BF0AEEF0BF09EA2AAEF0BF0A3
:10175000ACEF0BF0AEEF0BF096EC19F0A0A2B3EFEC
:101760000BF0B5EF0BF0BEEF0BF0A1A2BAEF0BF050
:10177000BCEF0BF0BEEF0BF090EC19F09DA4C3EFA3
:101780000BF0C5EF0BF0CEEF0BF09EA4CAEF0BF001
:10179000CCEF0BF0CEEF0BF0B9EC19F09DA8D3EF26
:1017A0000BF0D5EF0BF0DEEF0BF09EA8DAEF0BF0AD
:1017B000DCEF0BF0DEEF0BF0B5EC19F09DAAE3EFD8
:1017C0000BF0E5EF0BF0EEEF0BF09EAAEAEF0BF05B
:1017D000ECEF0BF0EEEF0BF0B7EC19F0A0A6F3EF87
:1017E0000BF0F5EF0BF0FEEF0BF0A1A6FAEF0BF00C
:1017F000FCEF0BF0FEEF0BF053EC19F09DA603EF9E
:101800000CF005EF0CF00EEF0CF09EA60AEF0CF0BA
:101810000CEF0CF00EEF0CF0B3EC19F00AC0DAFF8D
:1018200009C0D9FF08C0FBFF07C0FAFF749211007E
:101830003550800B426E35503524496E34AE23EF5F
:101840000CF025EF0CF026EF0CF049804950D8B48D
:101850002CEF0CF02EEF0CF043EF0CF04928D8A43D
:1018600034EF0CF036EF0CF03EEF0CF0000E326E61
:10187000000E336E000E346E000E356E348E000E88
:10188000356E4BEF0CF0000E326E000E336E000E14
:10189000346E000E356E3950800B421A395039249F
:1018A0004A6E38AE56EF0CF058EF0CF059EF0CF0D2
:1018B0004A804A50D8B45FEF0CF061EF0CF076EF3D
:1018C0000CF04A28D8A467EF0CF069EF0CF071EF28
:1018D0000CF0000E366E000E376E000E386E000EE5
:1018E000396E388E000E396E7EEF0CF0000E366EBB
:1018F000000E376E000E386E000E396E36503710FF
:1019000038103910D8A487EF0CF089EF0CF0A1EF54
:101910000CF0000E326E000E336E000E346E000EB0
:10192000356E800E34127F0E35124250351232C0A1
:1019300032F033C033F034C034F035C035F0E4EF6A
:101940000DF04950D8A4A7EF0CF0A9EF0CF0B3EFBD
:101950000CF0000E326E000E336E000E346E000E70
:10196000356EE4EF0DF04A5049C03AF03B6A3A5EFA
:10197000000E3B5A7F0E3A24436E000E3B20446E0D
:1019800032C03EF033C03FF034C040F035C041F0CB
:10199000000E326E000E336E000E346E000E356E89
:1019A000000E456E000E466E000E476E000E486E2D
:1019B000000E4A6E14EF0DF04A50D8B4E2EF0CF06E
:1019C000E4EF0CF0FBEF0CF0D8903E363F3640369B
:1019D0004136D890323633363436353648AEF3EFAA
:1019E0000CF0F5EF0CF0F6EF0CF03280D8904536A5
:1019F00046364736483636503E5C37503F583850AA
:101A0000405839504158D8A008EF0DF00AEF0DF0BA
:101A100013EF0DF0488C36503E5E37503F5A385029
:101A2000405A3950415A4A2A190E4A641AEF0DF0A9
:101A30001CEF0DF0DCEF0CF03E503F104010411059
:101A4000D8B425EF0DF027EF0DF03FEF0DF04580F6
:101A50003FEF0DF0D890323633363436353648AE57
:101A600034EF0DF036EF0DF037EF0DF03280D890F7
:101A700045364636473648364306D8A0440634AE87
:101A800044EF0DF046EF0DF02AEF0DF0000E4A6E18
:101A900048AE4DEF0DF04FEF0DF073EF0DF0FF0E70
:101AA00045143A6EFF0E46143B6EFF0E47143C6E13
:101AB0007F0E48143D6E3A503B103C103D10D8B498
:101AC00064EF0DF066EF0DF06AEF0DF0010E4A6E57
:101AD00073EF0DF032A06FEF0DF071EF0DF073EFBB
:101AE0000DF066EF0DF04A50D8B479EF0DF07BEFB2
:101AF0000DF09FEF0DF0010E3226000E332234223E
:101B0000352235A086EF0DF088EF0DF09FEF0DF038
:101B100032C03AF033C03BF034C03CF035C03DF049
:101B20003D343D323C323B323A323AC032F03BC077
:101B300033F03CC034F03DC035F0434A442A44BE43
:101B4000AAEF0DF0445008E14328D8A0AAEF0DF009
:101B5000ACEF0DF0B7EF0DF0000E446E4368000ED1
:101B6000326E000E336E000E346E000E356E44BEC3
:101B7000C4EF0DF0445006E14304D8B0C2EF0DF0BD
:101B8000C4EF0DF0D2EF0DF0000E446E000E436E68
:101B9000000E326E000E336E000E346E000E356E87
:101BA000000E426E43C049F049A0D9EF0DF0DBEFC3
:101BB0000DF0DEEF0DF0348EDFEF0DF0349ED89097
:101BC0004930356E95EF0CF01200720E1A6E79ECFA
:101BD00018F06B6E700E1A6E79EC18F06B12B50E71
:101BE0000B6E0FEC19F06B12BC0E1C6EB6EC12F003
:101BF0006B12BC0E226E1F0E236E2350D8A4100E43
:101C0000246E010E256E050E266E35EC17F06B1254
:101C1000B50E0E6E09EC17F06B12AE0E0E6E09ECDF
:101C200017F06B12BC0E226E010E236E2350D8A447
:101C3000100E246E030E256E020E266E35EC17F084
:101C40006B12BC0E226E100E236E2350D8A4100E01
:101C5000246E040E256E020E266E35EC17F06B1204
:101C60006450D8A436EF0EF038EF0EF040EF0EF0CF
:101C7000B50E0E6E0C0E0F6EC7EC18F04EEF0EF098
:101C80006404D8A446EF0EF048EF0EF04EEF0EF0CD
:101C9000AE0E0E6E0A0E0F6EC7EC18F0000E366E0A
:101CA000000E376E200E386E410E396EF60E1D6E28
:101CB000280E1E6E9C0E1F6E400E206E69C00BF02B
:101CC0006AC00CF00D6A0E6A000E17EC10F00BC023
:101CD00019F00CC01AF00DC01BF00EC01CF018EC6F
:101CE00008F019C032F01AC033F01BC034F01CC029
:101CF00035F018EC0CF032C020F133C021F134C0C3
:101D000022F135C023F132EC12F020C14DF021C197
:101D10004EF0000E366E000E376E200E386E410EFD
:101D2000396EF60E1D6E280E1E6E9C0E1F6E400E36
:101D3000206E67C00BF068C00CF00D6A0E6A000ED2
:101D400017EC10F00BC019F00CC01AF00DC01BF00E
:101D50000EC01CF018EC08F019C032F01AC033F0B5
:101D60001BC034F01CC035F018EC0CF032C020F170
:101D700033C021F134C022F135C023F132EC12F02E
:101D800020C14BF021C14CF04DC035F04EC036F0B3
:101D9000FA0E376E99EC15F04BC035F04CC036F0AA
:101DA000F50E376E99EC15F0BC0E226EFA0E236E0E
:101DB000246A030E256E100E266E35EC17F06B129A
:101DC000BC0E226EF50E236E246A040E256E100ED4
:101DD000266E35EC17F06B124E5009E11A0E4D5C71
:101DE000D8A0F5EF0EF0F7EF0EF0FCEF0EF0720E4C
:101DF000136E21EC18F06B124C5009E11D0E4B5C78
:101E0000D8A005EF0FF007EF0FF00CEF0FF0700EFA
:101E1000136E3FEC18F06B124E5007E1190E4D5C3B
:101E2000D8B015EF0FF017EF0FF030EF0EF04C5069
:101E300007E1190E4B5CD8B020EF0FF022EF0FF046
:101E400030EF0EF0720E136E03EC18F06B12700E82
:101E5000136E03EC18F06B1230EF0EF007EF00F08A
:101E60001650D96EDA6ADFCFF6FF100EF76EF86AF9
:101E70000800F550250AD8A440EF0FF042EF0FF00C
:101E800004EF10F01650D96EDA6ADF2A000E000156
:101E9000D66F000ED56FD5C063F0D769D8691650DC
:101EA000D96EDA6ADF501A6E1AC0F6FF100EF76E9E
:101EB000F86A0800F550640AD8B461EF0FF063EFD8
:101EC0000FF072EF0FF01AC0F6FF100EF76EF86AFF
:101ED0000800F550690AD8A470EF0FF072EF0FF008
:101EE000FEEF0FF01750D96EDA6A020EDF26DF5CC4
:101EF000D96EDA6ADECF1BF0DECF1CF01650D96E39
:101F0000DA6A1A28DF6E200E1F6E1CBE8AEF0FF0F1
:101F10008DEF0FF0010E8EEF0FF0000E196E1F0601
:101F2000000E1F24D96EDA6A010EDA221BC00BF0F4
:101F30001CC00CF0000E0E6E0A0E0D6EFBEC13F0C2
:101F40000BC011F00CC012F0ADEC18F01150300FB6
:101F5000DF6E1BC00BF01CC00CF0000E0E6E0A0EE4
:101F60000D6E99EC13F00BC01BF00CC01CF01B5055
:101F70001C10D8B4BEEF0FF0C0EF0FF0C8EF0FF099
:101F80001F50D8A4C6EF0FF0C8EF0FF08FEF0FF07F
:101F90001F50D8B4CEEF0FF0D0EF0FF0F3EF0FF0EB
:101FA0001950D8B4D6EF0FF0D8EF0FF0F3EF0FF0D1
:101FB0001F06000E1F24D96EDA6A010EDA222D0EDA
:101FC000DF6EF3EF0FF0000E1F24D96EDA6A010EF8
:101FD000DA22DF50186E18500B6E0C6A15C00DF027
:101FE000A9EC14F01F2A200E1F18D8A4FAEF0FF046
:101FF000FCEF0FF0E3EF0FF016EF10F01650D96E74
:10200000DA6ADF2A16EF10F01650D96EDA6ADFCFDF
:10201000F6FF100EF76EF86A0800F5500B6E0C6AAA
:1020200015C00DF0A9EC14F0FEEF0FF01200136EC6
:102030001350D8B41EEF10F020EF10F042EF10F064
:102040000EBE27EF10F025EF10F042EF10F00BC09E
:102050000FF00CC010F00DC011F00EC012F00F1EEA
:10206000101E111E121E0F2A000E10221122122203
:102070000FC015F010C016F011C017F012C018F004
:102080004AEF10F00BC015F00CC016F00DC017F0A1
:102090000EC018F00B500C100D100E10D8A453EFFA
:1020A00010F055EF10F05FEF10F0000E0B6E000E09
:1020B0000C6E000E0D6E000E0E6EF0EF10F0960E10
:1020C000146E69EF10F0142AD890183217321632B5
:1020D0001532000E15140F6E000E1614106E000E41
:1020E0001714116EFE0E1814126E0F5010101110EE
:1020F0001210D8A47EEF10F080EF10F063EF10F014
:102100008EEF10F0142A010E1526000E162217224B
:102110001822D8901832173216321532000E1514C4
:102120000F6E000E1614106E000E1714116EFF0EB7
:102130001814126E0F50101011101210D8A4A3EF23
:1021400010F0A5EF10F082EF10F0ADEF10F01406D4
:10215000D890153616361736183617BEB2EF10F06F
:10216000B4EF10F0BCEF10F0020E1460BAEF10F0F4
:10217000BCEF10F0A7EF10F014B0C1EF10F0C3EFF8
:1021800010F0C4EF10F0179ED890143214C00FF066
:10219000106A116A126A0FC012F0116A106A0F6A8F
:1021A0000F5015121050161211501712125018120B
:1021B0001350D8B4DEEF10F0E0EF10F0E8EF10F0BD
:1021C0000EBEE7EF10F0E5EF10F0E8EF10F0188E1C
:1021D00015C00BF016C00CF017C00DF018C00EF0B3
:1021E00012001350D8B4F7EF10F0F9EF10F017EF1A
:1021F00011F01350D96EDA6ADF30E832E832070B9B
:10220000146E080E146007EF11F009EF11F017EFCC
:1022100011F01350D96EDA6ADF50070B146E030EFB
:10222000146415EF11F017EF11F076EF11F0000EB6
:10223000196E98EF11F01350D96EDA6ADF30E83278
:10224000E832070B146E010E156E142A2AEF11F0F6
:10225000D8901536142E28EF11F01350D96EDA6A83
:10226000DF50070B020DF350900FD96EDA6ADECF04
:1022700016F0DDCF17F016C0D9FF17C0DAFF1550E2
:10228000DF1213C00BF0000E0C6E9AEC11F096EFFB
:1022900011F01350D96EDA6ADF30E832E832070BFA
:1022A000146E010E156E142A58EF11F0D8901536E1
:1022B000142E56EF11F01550FF0A166E1350D96EFA
:1022C000DA6ADF50070B020DF350900FD96EDA6A0D
:1022D000DECF17F0DDCF18F017C0D9FF18C0DAFF36
:1022E0001650DF1641EF11F096EF11F01350D96E32
:1022F000DA6ADFBC7EEF11F081EF11F0010E82EFA0
:1023000011F0000E146E156A1550000AD8B48BEF48
:1023100011F074EF11F01450000AD8B449EF11F025
:10232000010AD8B41BEF11F074EF11F0010E196E11
:10233000195012000B50D8B4A0EF11F0A2EF11F019
:10234000C0EF11F00B50D96EDA6ADF30E832E832B4
:10235000070B0D6E080E0D60B0EF11F0B2EF11F02B
:10236000C0EF11F00B50D96EDA6ADF50070B0D6E1B
:10237000030E0D64BEEF11F0C0EF11F019EF12F073
:10238000000E126E30EF12F00B50D96EDA6ADF30A9
:10239000E832E832070B0D6E010E0E6E0D2AD3EFF8
:1023A00011F0D8900E360D2ED1EF11F00B50D96EE2
:1023B000DA6ADF50070B020DF3509A0FD96EDA6A12
:1023C000DECF0FF0DDCF10F00FC0D9FF10C0DAFF65
:1023D0000E50DF122EEF12F00B50D96EDA6ADF309A
:1023E000E832E832070B0D6E010E0E6E0D2AFBEF80
:1023F00011F0D8900E360D2EF9EF11F00E50FF0AA5
:102400000F6E0B50D96EDA6ADF50070B020DF350D6
:102410009A0FD96EDA6ADECF10F0DDCF11F010C05E
:10242000D9FF11C0DAFF0F50DF162EEF12F02EEF9A
:1024300012F00C500D6E0E6A0E50000AD8B423EF45
:1024400012F017EF12F00D50000AD8B4ECEF11F0B3
:10245000010AD8B4C4EF11F017EF12F0010E126E9A
:1024600012501200010122352335296F2951D8A4B9
:102470003CEF12F03EEF12F048EF12F0000E206F2A
:10248000000E216F000E226F000E236FB5EF12F0C9
:1024900020C124F121C125F122C126F123C127F158
:1024A000200E58EF12F0D8902733263325332433EB
:1024B000E82E53EF12F02451286F228FFF0E2017C1
:1024C000FF0E2117FF0E2217000E2317960E295F0D
:1024D00029BF6FEF12F06DEF12F085EF12F0295166
:1024E000800A970FD8B077EF12F079EF12F07BEFF8
:1024F00012F03EEF12F0D8902333223321332033F1
:10250000293F7BEF12F09DEF12F01F0E29658BEF34
:1025100012F08DEF12F095EF12F03EEF12F0D8901E
:10252000203721372237233729072951D8A49BEF99
:1025300012F09DEF12F08FEF12F02851D8B4A3EFF4
:1025400012F0A5EF12F0ADEF12F0231F221F211F92
:10255000206D000E21232223232320C120F121C13D
:1025600021F122C122F123C123F11200000E1E6EBF
:102570001C50D8A4BEEF12F0C0EF12F0C4EF12F05E
:10258000000E1F6E28EF13F01C28136EF1EC10F0F4
:102590001F6E1CC013F0F1EC10F01F6E000E1E6ECB
:1025A0001C501E24020F136EF1EC10F01E2A030EB5
:1025B0001E64DDEF12F0DFEF12F0D0EF12F0340EF8
:1025C0001D6EF20EE82EFED71D2EFCD71CC019F092
:1025D000380E1A6EA9EC16F00D0E1D6EFC0EE82ECC
:1025E000FED71D2EFCD71CC019F0380E1A6EA9ECB0
:1025F00016F0640EE82EFED71CC019F0380E1A6EC5
:10260000A9EC16F01CC019F0010E1A6EA9EC16F018
:102610001CC019F0020E1A6EA9EC16F01CC019F0BD
:10262000060E1A6EA9EC16F01CC019F00C0E1A6EEC
:10263000A9EC16F01CC019F0280E1A6EA9EC16F0C1
:102640001CC019F0800E1A6EA9EC16F0010E1F6E58
:102650001F5012000D6E56EF13F0928097EF13F09B
:10266000928297EF13F0928497EF13F0928697EF90
:1026700013F0928A97EF13F0968097EF13F09682FB
:1026800097EF13F0968497EF13F0938497EF13F07E
:10269000938697EF13F0938297EF13F0938897EF59
:1026A00013F0938097EF13F097EF13F00D500B6E2C
:1026B0000C6A0C50000AD8B460EF13F054EF13F01A
:1026C0000B50000AD8B42DEF13F0010AD8B430EF44
:1026D00013F0030AD8B433EF13F0010AD8B436EF7D
:1026E00013F0070AD8B439EF13F0010AD8B43CEF5D
:1026F00013F0030AD8B43FEF13F0010AD8B442EF45
:1027000013F00F0AD8B445EF13F0010AD8B448EF1C
:1027100013F0030AD8B44BEF13F0010AD8B44EEF0C
:1027200013F0070AD8B451EF13F054EF13F0010E71
:102730001200000E106E0EBEA2EF13F0A0EF13F009
:10274000A8EF13F00D6C0E1ED8B00E2A010E106EFD
:102750000CBEAFEF13F0ADEF13F0B5EF13F00B6C51
:102760000C1ED8B00C2A010E101A000E126E000EAC
:10277000116E0D500E10D8B4C0EF13F0C2EF13F06D
:10278000EAEF13F0010E0F6ECAEF13F0D8900D367A
:102790000E360F2A0EAECFEF13F0D1EF13F0C6EFC7
:1027A00013F0D890113612360D500B5C0E500C58A9
:1027B000D8A0DDEF13F0DFEF13F0E4EF13F00D50CE
:1027C0000B5E0E500C5A1180D8900E320D320F2E27
:1027D000D1EF13F01050D8B4F0EF13F0F2EF13F084
:1027E000F6EF13F0116C121ED8B0122A11C00BF0C4
:1027F00012C00CF01200000E106E0CBE04EF14F0AC
:1028000002EF14F00AEF14F00B6C0C1ED8B00C2A77
:10281000010E106E0EBE11EF14F00FEF14F015EF55
:1028200014F00D6C0E1ED8B00E2A0D500E10D8B438
:102830001CEF14F01EEF14F042EF14F0010E0F6EB7
:1028400026EF14F0D8900D360E360F2A0EAE2BEF71
:1028500014F02DEF14F022EF14F00D500B5C0E501D
:102860000C58D8A036EF14F038EF14F03CEF14F009
:102870000D500B5E0E500C5AD8900E320D320F2EAA
:102880002DEF14F01050D8B448EF14F04AEF14F0C4
:102890004EEF14F00B6C0C1ED8B00C2A0BC00BF0D2
:1028A0000CC00CF012001C50D8A459EF14F05BEFD0
:1028B00014F05FEF14F0000E216EA7EF14F01E0667
:1028C00088EF14F01CC019F01E50800F1A6EA9EC8E
:1028D00016F0A5EF14F01CC019F01E50C00F1A6EB0
:1028E000A9EC16F0A5EF14F01CC019F01E50940FBF
:1028F0001A6EA9EC16F0A5EF14F01CC019F01E50CA
:10290000D40F1A6EA9EC16F0A5EF14F0A5EF14F091
:102910001D501F6E206A2050000AD8B492EF14F0A8
:1029200086EF14F01F50010AD8B462EF14F0030AC6
:10293000D8B46BEF14F0010AD8B474EF14F0070A9E
:10294000D8B47DEF14F086EF14F0010E216E215003
:1029500012000D50D8B4AFEF14F0B1EF14F0B9EF8E
:1029600014F00D50D8A4B7EF14F0B9EF14F0BEEF87
:1029700014F00B50BBEC19F0FDEF14F00D50D96EB4
:10298000DA6A0A0ED926DE50DE10D8B4CAEF14F087
:10299000CCEF14F0E5EF14F00D50D96EDA6A0A0EA0
:1029A000D9260D50E16EE26A030EE126DE50E65CA8
:1029B000E650800A126EDE50800A1258D8B0E3EF5B
:1029C00014F0E5EF14F0FDEF14F00D50D96EDA6A53
:1029D000030ED926DF500E6E0D50D96EDA6ADF5025
:1029E0000E24D96EDA6A0BC0DFFF0D50D96EDA6A99
:1029F000030ED926DE2A000EDD2212000150D8B4C3
:102A000004EF15F006EF15F00EEF15F00250D8A404
:102A10000CEF15F00EEF15F012EF15F0000E066E2C
:102A20004DEF15F00150D96EDA6A020ED926DF504B
:102A3000D8A41DEF15F01FEF15F03AEF15F0C350B5
:102A4000C4CF03F0046A03C004F0036A0326000E37
:102A50000422060E056E043404320332052E2BEFD9
:102A600015F00250D96EDA6A03C0DEFF04C0DDFF44
:102A70004BEF15F0C350C4CF03F0046A03C004F059
:102A8000036A0326000E04220250D96EDA6A03C0DC
:102A9000DEFF04C0DDFF010E066E065012001C5062
:102AA000D8B455EF15F057EF15F060EF15F01D5045
:102AB0001E10D8A45EEF15F060EF15F07CEF15F056
:102AC000000E1F6E97EF15F01CC019F01DC0F6FF29
:102AD0001EC0F7FF000EF86E0F0EF76403D008005B
:102AE000F55005D0F6CFE9FFF7CFEAFFEF501A6EA9
:102AF000D9EC16F01D4A1E2A1DC0F6FF1EC0F7FFB6
:102B0000000EF86E0F0EF76403D00800F55005D0E4
:102B1000F6CFE9FFF7CFEAFFEF500009D8A493EF13
:102B200015F095EF15F064EF15F0010E1F6E1F50B4
:102B3000120020EE38F0040EDE6AE806FDE2000E18
:102B40003D6E3750D8A4A7EF15F0A9EF15F0ABEF05
:102B500015F0DAEF15F037C00BF0000E0D6E000E19
:102B60000C6E000E0F6E050E0E6EE0EC18F0380EB7
:102B7000246E2B0E256E35C026F036C027F093EC60
:102B800018F0CEEF15F03D50380FD96EDA6A375095
:102B90003D24E16EE26ADFCFE7FF3D2A3D50380F6A
:102BA000D96EDA6ADF50D8A4D8EF15F0DAEF15F055
:102BB000C3EF15F01200060EF66E2F0EF76E000E24
:102BC000F86E00EE80F010EE42F00900F5CFEEFF57
:102BD000E550E150FAE1500EF66E330EF76E000E3E
:102BE000F86E00EE6BF010EE09F00900F5CFEEFF85
:102BF000E550E150FAE101EE00F0200EEE6AE80641
:102C0000FDE100EEC2F03D0EEE6AE806FDE100EEE9
:102C10004BF0200EEE6AE806FDE17490749200011C
:102C2000E5EF0DF00B50D8A418EF16F01AEF16F0E0
:102C30001EEF16F0000E0D6E44EF16F00B50D96E1D
:102C4000DA6A060ED926DE04D8A429EF16F02BEF97
:102C500016F02FEF16F0C182C18042EF16F00B5034
:102C6000D96EDA6A060ED926DF50D8A43AEF16F0EC
:102C70003CEF16F040EF16F0C192C19042EF16F013
:102C8000C192C190010E0D6E0D501200000E186E13
:102C90001350D8A44EEF16F050EF16F054EF16F084
:102CA000000E176E76EF16F0000E186E13501824F3
:102CB000020F0B6E18C015F014C016F0152A63EF42
:102CC00016F0D8901632152E61EF16F01650010B43
:102CD0000C6E9AEC11F0182A030E186472EF16F0BD
:102CE00074EF16F056EF16F0010E176E1750120023
:102CF0000B50D8A47EEF16F080EF16F084EF16F09C
:102D0000000E0D6EA7EF16F00B50D96EDA6A020EA8
:102D1000D926DF50D8A48FEF16F091EF16F094EF7C
:102D200016F0C09EA5EF16F00B50D96EDA6A020EAF
:102D3000D926DE04D8A49FEF16F0A1EF16F0A4EF79
:102D400016F0C08EA5EF16F0C08E010E0D6E0D5060
:102D500012001950D8A4AFEF16F0B1EF16F0B5EF8E
:102D600016F0000E1B6ED7EF16F019C00BF0000E18
:102D70000C6E9AEC11F01B6E19C013F01A380F0B81
:102D8000146E46EC16F01B6E19C013F0A4EC17F08D
:102D90001B6E19C013F01AC014F046EC16F01B6E2F
:102DA00019C013F0A4EC17F01B6E010E1B6E1B5024
:102DB00012001950D8A4DFEF16F0E1EF16F0E5EF9E
:102DC00016F0000E1B6E07EF17F019C00BF0010E86
:102DD0000C6E9AEC11F01B6E19C013F01A380F0B21
:102DE000146E46EC16F01B6E19C013F0A4EC17F02D
:102DF0001B6E19C013F01AC014F046EC16F01B6ECF
:102E000019C013F0A4EC17F01B6E010E1B6E1B50C3
:102E100012000E50D8A40FEF17F011EF17F015EFB6
:102E200017F0000E0F6E33EF17F00EC00BF034ECFE
:102E300019F00EC00BF012EC16F00EC00BF0E4EC23
:102E400017F00EC00BF05DEC18F00EC00BF078EC34
:102E500016F00EC00BF0F8EC18F00EC00BF023ECDF
:102E600019F0010E0F6E0F5012002250D8B43BEF34
:102E700017F03DEF17F046EF17F023502410D8A4B9
:102E800044EF17F046EF17F04AEF17F0000E276EE9
:102E90005CEF17F022C01CF025C01DF026C01EF00C
:102EA00053EC14F022C01CF023C01DF024C01EF00F
:102EB0004FEC15F0010E276E275012006450D8A475
:102EC00064EF17F066EF17F071EF17F0B50E016EB3
:102ED000690E026EFEEC14F06B12010E646E82EF4E
:102EE00017F06404D8A477EF17F079EF17F082EFAA
:102EF00017F0AE0E016E670E026EFEEC14F06B1250
:102F0000000E646E12000708092F0405062A01024C
:102F1000032D7A003D2B920F930F940F950F960F70
:102F2000890F8A0F8B0F8C0F8D0F800F810F820FEF
:102F3000830F840FBC2E0104050A00BC2E0104057A
:102F40000C00020A121A222A1350D8A4AAEF17F072
:102F5000ACEF17F0B0EF17F0000E146EC2EF17F0E1
:102F600013280B6E010E0C6E9AEC11F0030EE82E76
:102F7000FED7000013280B6E000E0C6E9AEC11F0B9
:102F8000010E146E1450120021C023F0D0EF17F080
:102F900020C015F0230E166E22C017F030EC0FF093
:102FA00023C0F6FF100EF76EF86A0800F55000090E
:102FB000D8A4DDEF17F0DFEF17F0C8EF17F0000E21
:102FC000216E000E206E12000B50D8A4EAEF17F00D
:102FD000ECEF17F0F0EF17F0000E0D6E01EF18F0A8
:102FE0000B50D96EDA6A040ED926DF500C6E0C46EF
:102FF0000C460C46C0500C18C70B0C18C06E010EC6
:103000000D6E0D5012001350D8A409EF18F00BEFFD
:1030100018F00FEF18F0000E146E1FEF18F013C029
:103020000BF0000E0C6E9AEC11F0146E13280B6E60
:10303000000E0C6E9AEC11F0146E010E146E14500A
:1030400012001350D8A427EF18F029EF18F02DEF35
:1030500018F0000E146E3DEF18F013C00BF0010EC7
:103060000C6E9AEC11F0146E13280B6E000E0C6EA1
:103070009AEC11F0146E010E146E145012001350DD
:10308000D8A445EF18F047EF18F04BEF18F0000EFA
:10309000146E5BEF18F013C00BF0000E0C6E9AEC80
:1030A00011F0146E13280B6E010E0C6E9AEC11F0D9
:1030B000146E010E146E145012000B50D8A463EF5E
:1030C00018F065EF18F069EF18F0000E0D6E77EF4D
:1030D00018F00B50D96EDA6A030ED926DF500C6E49
:1030E000C0500C18F80B0C18C06E010E0D6E0D5070
:1030F00012001A50D8A47FEF18F081EF18F085EF76
:1031000018F0000E1B6E91EF18F01AC013F0F1ECDE
:1031100010F01B6E1A28136EF1EC10F01B6E010EEE
:103120001B6E1B501200260E286E24C029F0000EC4
:103130002D6E000E2C6E000E346E000E336E290EB6
:10314000206E25C021F0280E226EC4EC17F024500A
:103150002C24D96EDA6ADF6A120012BEB2EF18F0C0
:10316000B4EF18F0BAEF18F011C011F012C012F05D
:10317000C6EF18F011C013F012C014F0131E141E85
:10318000134A142A13C011F014C012F012000E508A
:10319000D8A4CDEF18F0CFEF18F0D1EF18F0DFEF93
:1031A00018F09E9C0FC010F010461046C250101828
:1031B000C30B1018C26E0F502AEC13F0C28212001B
:1031C0000BC010F0EAEF18F01050D96EDA6A0CC09C
:1031D000DFFF102A0E06D8A00F060E2806E10F28E2
:1031E000D8A4F5EF18F0F7EF18F0E4EF18F012009C
:1031F0000B50D8A4FEEF18F000EF19F004EF19F00F
:10320000000E0C6E0DEF19F00B50D96EDA6ADECF9E
:1032100061F0DDCF62F0010E0C6E0C5012000B500D
:10322000D8A415EF19F017EF19F01BEF19F0000EE5
:103230000C6E21EF19F0F28C9E9C9D8CF28E010E8B
:103240000C6E0C5012000B50D8A429EF19F02BEF84
:1032500019F02FEF19F0000E0C6E32EF19F0C2804A
:10326000010E0C6E0C5012000B50D8A43AEF19F05E
:103270003CEF19F040EF19F0000E0C6E43EF19F01F
:10328000C290010E0C6E0C5012009E9C02D852EFA0
:1032900019F00500FA6E6150FD6E6250FE6EFF6A15
:1032A000FA5012001200A196060E026E130E016E65
:1032B000AE0EE82EFED7012EFCD7022EFAD7120052
:1032C000F29081BE66EF19F068EF19F06AEF19F01D
:1032D0006BEF19F081501200F29081BC72EF19F07F
:1032E00074EF19F076EF19F077EF19F081501200B2
:1032F000F29081BA7EEF19F080EF19F082EF19F0A9
:1033000083EF19F081501200F29081B88AEF19F022
:103310008CEF19F08EEF19F08FEF19F08150120039
:10332000A1925050B36E4FC0B2FF12009E92000E99
:10333000CC6E65C0CBFF12009E905250CF6E51C034
:10334000CEFF1200F2945650D76E55C0D6FF120031
:093350000101010101030B323AF5
:10335A00F0921200F0901200F29212009E96120061
:0E336A009D9812009D9812009E941200120071
:020000040030CA
:0E000000FF021F1FFF8385FF0FC00FE00F40A0
:00000001FF
